:100000000C945D000C9485000C9485000C94850084
:100010000C9485000C9485000C9485000C9485004C
:100020000C9485000C9485000C9485000C9485003C
:100030000C9485000C9485000C9485000C9485002C
:100040000C945E040C9485000C942C040C9406040F
:100050000C9485000C9485000C9485000C9485000C
:100060000C94A8040C9485000000000023002600D6
:10007000290000000000250028002B0004040404CF
:100080000404040402020202020203030303030342
:10009000010204081020408001020408102001021F
:1000A00004081020000000080002010000030407FB
:1000B0000000000000000000D60511241FBECFEF95
:1000C000D8E0DEBFCDBF11E0A0E0B1E0ECE2F7E1A7
:1000D00002C005900D92A035B107D9F722E0A0E546
:1000E000B1E001C01D92AF38B207E1F710E0CDE5F5
:1000F000D0E004C02197FE010E944D09CC35D10704
:10010000C9F70E9423060C94940B0C940000E09114
:10011000DA01F091DB010190F081E02D682F8AED8A
:1001200091E00994CF92DF92EF92FF920F931F9389
:10013000CF93DF936C017A018B01C0E0D0E0CE1544
:10014000DF0589F0D8016D918D01D601ED91FC910B
:100150000190F081E02DC6010995892B11F47E01F3
:1001600002C02196ECCFC701DF91CF911F910F9173
:10017000FF90EF90DF90CF900895FC01918D828DDC
:10018000981761F0828DDF01A80FB11D5D968C91EB
:10019000928D9F5F9F73928F90E008958FEF9FEFF6
:1001A0000895FC01918D828D981731F0828DE80FB2
:1001B000F11D858D90E008958FEF9FEF0895FC016C
:1001C000918D228D892F90E0805C9F4F821B910939
:1001D0008F73992708958AED91E00E94DF0021E056
:1001E000892B09F420E0822F0895FC01848DDF0122
:1001F000A80FB11DA35ABF4F2C91848D90E001969A
:100200008F739927848FA689B7892C93A089B18988
:100210008C9180648C93938D848D981306C0028892
:10022000F389E02D80818F7D80830895EF92FF9286
:100230000F931F93CF93DF93EC0181E0888F9B8D09
:100240008C8D981305C0E889F989808185FD24C0CB
:10025000F62E0B8D10E00F5F1F4F0F731127E02E4E
:100260008C8DE8120CC00FB607FCFACFE889F9892B
:10027000808185FFF5CFCE010E94F500F1CF8B8DF7
:10028000FE01E80FF11DE35AFF4FF0820B8FEA8960
:10029000FB898081806207C0EE89FF896083E889DD
:1002A000F98980818064808381E090E0DF91CF9143
:1002B0001F910F91FF90EF900895CF93DF93EC0182
:1002C000888D8823C9F0EA89FB89808185FD05C076
:1002D000A889B9898C9186FD0FC00FB607FCF5CFB0
:1002E000808185FFF2CFA889B9898C9185FFEDCFF8
:1002F000CE010E94F500E7CFDF91CF91089580E015
:1003000090E0892B29F00E94EB0081110C940000F1
:100310000895833081F028F4813099F08230A1F083
:1003200008958730A9F08830B9F08430D1F48091F5
:1003300080008F7D03C0809180008F778093800044
:10034000089584B58F7702C084B58F7D84BD0895EC
:100350008091B0008F7703C08091B0008F7D809333
:10036000B00008951F93CF93DF93E1EBF0E09491F9
:10037000EDE9F0E0D491E9E8F0E0C491CC23D9F0C4
:10038000182F992319F0892F0E948901EC2FF0E092
:10039000EE0FFF1FEE58FF4FA591B4918FB7F89461
:1003A000111105C09C91ED2FE095E92302C0EC915D
:1003B000ED2BEC938FBFDF91CF911F910895CF93D9
:1003C000DF93282F30E0F901EC55FF4F8491F901BC
:1003D000E057FF4FD491F901E458FF4FC491CC236B
:1003E00091F081110E948901EC2FF0E0EE0FFF1FC8
:1003F000E859FF4FA591B491EC91ED2381E090E095
:1004000021F480E002C080E090E0DF91CF91089578
:100410008E3008F08E508770806480937C008091CD
:100420007A00806480937A0080917A0086FDFCCF08
:10043000809178002091790090E0922B08953FB749
:10044000F8948091C4019091C501A091C601B0912A
:10045000C70126B5A89B05C02F3F19F00196A11D25
:10046000B11D3FBFBA2FA92F982F8827820F911D4A
:10047000A11DB11DBC01CD0142E0660F771F881F91
:10048000991F4A95D1F7089585ED8093BC0080911E
:10049000BC0084FDFCCF1092990108954091730136
:1004A000262F30E0240F311D21323105DCF420915C
:1004B00099012430C9F4FC0180E090E0861758F4DB
:1004C000309173012191DC01AF5ABE4FA30FB11DD2
:1004D0002C930196F3CF80917301680F60937301A1
:1004E00080E0089581E0089582E0089508958FEFF7
:1004F0009FEF08958FEF9FEF08958091500190E056
:100500009195819591090895CF93DF9300D0CDB750
:10051000DEB7CB01642F49835A830E944E02498182
:10052000842F5A81952F0F900F90DF91CF910895CE
:10053000CF93DF931F92CDB7DEB7698361E0CE0121
:1005400001960E944E0281E090E00F90DF91CF91E2
:100550000895009769F0FC0101900020E9F73197B8
:10056000AF01481B590BBC018AED91E00C9492003D
:1005700080E090E008950C94A9028F929F92AF9230
:10058000BF920F931F93CF93DF93CDB7DEB7A197A1
:100590000FB6F894DEBF0FBECDBF19A2423008F4EB
:1005A0004AE08E010F5D1F4F842E912CA12CB12C9F
:1005B000A50194010E942B09E62FB901CA0101503F
:1005C0001109EA3014F4E05D01C0E95CD801EC9354
:1005D000232B242B252B61F7C8010E94A902A19689
:1005E0000FB6F894DEBF0FBECDBFDF91CF911F9144
:1005F0000F91BF90AF909F908F900895CF92DF9210
:10060000EF92FF92CF93DF936C01990FEE08FF08F2
:10061000F7FE12C08DE20E948700EC016627772763
:10062000CB016C197D098E099F094AE00E94BD0229
:100630007C01EC0EFD1E06C04AE0C701B6010E9417
:10064000BD027C0186E291E00E94A9028E0D9F1DF1
:10065000DF91CF91FF90EF90DF90CF9008954F9270
:100660005F926F927F928F929F92AF92BF92CF9242
:10067000DF92EF92FF926B017C01B42E9B01AC01E3
:100680000E948A0B882319F089E291E027C0260195
:100690003701E89477F82FEF3FEF4FE75FE7C301AB
:1006A000B2010E948A0B81110DC02FEF3FEF4FE77F
:1006B0005FE7C301B2010E94C00918161CF48DE265
:1006C00091E00CC02FEF3FEF4FE75FE4C701B601A9
:1006D0000E94180B181684F481E391E0FF90EF90CC
:1006E000DF90CF90BF90AF909F908F907F906F9052
:1006F0005F904F900C94A9022FEF3FEF4FE75FEC14
:10070000C701B6010E94C00987FDE6CF20E030E0B6
:10071000A901C701B6010E94C00987FF09C08DE287
:100720000E9487004C01F7FAF094F7F8F09402C0A9
:10073000812C912CA12C60E070E080E09FE3AB1451
:1007400041F020E030E040E251E40E94C509A3946A
:10075000F6CF9B01AC01C701B6010E9454092B01E1
:100760003C010E94370A6B017C010E94660A9B01D2
:10077000AC01C301B2010E9453092B013C014AE0C4
:10078000C701B6010E94BD027C01E80CF91CBB2028
:1007900031F085E391E00E94A902E80EF91EDB2CFE
:1007A000DD2021F120E030E040E251E4C301B2015C
:1007B0000E941D0B2B013C010E94370A4B01A12C0A
:1007C000B12C4AE0C501B4010E94BD02E80EF91E39
:1007D000C501B4010E94660A9B01AC01C301B201CC
:1007E0000E9453092B013C01DA94DACFC701FF9034
:1007F000EF90DF90CF90BF90AF909F908F907F90C1
:100800006F905F904F9008950E948F0B1F920F92F0
:100810000FB60F9211242F933F934F935F936F93D3
:100820007F938F939F93AF93BF93EF93FF938AED43
:1008300091E00E94F500FF91EF91BF91AF919F91E0
:100840008F917F916F915F914F913F912F910F9079
:100850000FBE0F901F9018951F920F920FB60F9218
:1008600011242F938F939F93EF93FF93E091EA01CD
:10087000F091EB018081E091F001F091F10182FDB6
:1008800012C090818091F3018F5F8F732091F401EA
:10089000821751F0E091F301F0E0E652FE4F958FA0
:1008A0008093F30101C08081FF91EF919F918F911F
:1008B0002F910F900FBE0F901F9018951F920F92BF
:1008C0000FB60F9211242F933F938F939F93AF9363
:1008D000BF938091C0019091C101A091C201B091DC
:1008E000C3013091BF0123E0230F2D3720F401967F
:1008F000A11DB11D05C026E8230F0296A11DB11D43
:100900002093BF018093C0019093C101A093C201C5
:10091000B093C3018091C4019091C501A091C6011B
:10092000B091C7010196A11DB11D8093C4019093A0
:10093000C501A093C601B093C701BF91AF919F912C
:100940008F913F912F910F900FBE0F901F90189590
:100950001F920F920FB60F9211242F933F934F9334
:100960005F936F937F938F939F93AF93BF93EF9317
:10097000FF938091B900887F803609F49CC068F5A8
:10098000883209F45BC090F4803109F454C038F423
:10099000882309F4F6C0883009F44DC0F6C08831C8
:1009A00009F44CC0803209F45DC0EFC0803409F412
:1009B00068C048F4803309F455C0883309F0E5C0B5
:1009C00080939801D8C0803509F44FC0883509F468
:1009D0005DC0883409F0D9C0D6C0883909F4C7C0D1
:1009E000A8F4883709F467C038F4883609F463C07E
:1009F000803709F460C0C9C0883809F4B8C08039AC
:100A000009F45FC0803809F0C0C05BC0803B09F4C6
:100A100086C038F4803A09F466C0883A09F47FC089
:100A2000B4C0803C09F4A7C0883C09F4A4C0883B4A
:100A300009F48AC0AAC08091BE0110C09091BD0186
:100A40008091BC01981770F5E091BD0181E08E0F97
:100A50008093BD01F0E0E456FE4F80818093BB009F
:100A600085EC86C0809398018EC0E091BD0181E045
:100A70008E0F8093BD018091BB00F0E0E456FE4FE5
:100A800080839091BD018091BC016EC0E091BD0159
:100A900081E08E0F8093BD018091BB00F0E0E456B1
:100AA000FE4F808380919B0181116DC081E0809316
:100AB0009A0184EA61C083E08093990110929701C2
:100AC000CFCF80919701803208F051C0E09197011B
:100AD00081E08E0F809397018091BB00F0E0E95890
:100AE000FE4F8083BDCF85EC8093BC0010929901AE
:100AF00080919701803230F4E0919701F0E0E9585D
:100B0000FE4F10826091970170E0E0917501F091C5
:100B1000760187E791E009951092970136C084E04D
:100B2000809399011092740110927301E091710108
:100B3000F0917201099580917301811105C081E0E6
:100B40008093730110925101E091740181E08E0F46
:100B500080937401F0E0EF5AFE4F80818093BB00D8
:100B60009091740180917301981708F479CF85E80A
:100B70008093BC000AC085EC8093BC001092990160
:100B800004C0109298010E944402FF91EF91BF911E
:100B9000AF919F918F917F916F915F914F913F9115
:100BA0002F910F900FBE0F901F901895EAEDF1E076
:100BB0001382128288EE93E0A0E0B0E084839583F4
:100BC000A683B7832AE031E03183208325EC30E02F
:100BD0003587248724EC30E03787268720EC30E007
:100BE000318B208B21EC30E0338B228B22EC30E0F8
:100BF000358B248B26EC30E0378B268B118E128EB2
:100C0000138E148EE7E7F2E01382128284839583B9
:100C1000A683B7838AE191E0918380838EE097EC8D
:100C2000AAE1BFE38093870290938802A093890290
:100C3000B0938A021092830210928402109285026D
:100C4000109286020895CF93DF9300D0CDB7DEB720
:100C5000789484B5826084BD84B5816084BD85B597
:100C6000826085BD85B5816085BD80916E008160A3
:100C700080936E0010928100809181008260809349
:100C8000810080918100816080938100809180004B
:100C90008160809380008091B10084608093B10076
:100CA0008091B00081608093B00080917A00846070
:100CB00080937A0080917A00826080937A0080919C
:100CC0007A00816080937A0080917A0080688093B6
:100CD0007A001092C100E091EA01F091EB0182E00C
:100CE0008083E091E601F091E7011082E091E80154
:100CF000F091E90180E180831092F201E091EE0130
:100D0000F091EF0186E08083E091EC01F091ED013C
:100D1000808180618083E091EC01F091ED01808120
:100D200088608083E091EC01F091ED018081806822
:100D30008083E091EC01F091ED0180818F7D8083D3
:100D400087E391E00E94BB0280E090E00E94FE02F7
:100D500082E491E00E94BB0220918B0230918C02D0
:100D60002115310511F42FE832E0CE010196821BE6
:100D7000930B0E94FE0211E0412C512C90E8692E49
:100D80009FE3792E8091D8019091D901019690939B
:100D9000D9018093D8018091CD018111A1C189E051
:100DA0000E94DF01892B09F490C18091CC0181114F
:100DB000B8C187E00E94DF01892B09F4A7C18091A7
:100DC000CB018111CFC184E00E94DF01892B09F49E
:100DD000BEC18091CA018111E6C182E00E94DF019B
:100DE000892B09F4D5C18091C9018111FDC183E02E
:100DF0000E94DF01892B09F4ECC18091C8018111A7
:100E000014C28AE00E94DF01892B09F403C284E145
:100E10000E9408026C0185E10E9408027C01B60173
:100E2000DD0C880B990B0E94680A20E030E047EF48
:100E300053E40E9453094B015C01B701FF0C880B7E
:100E4000990B0E94680A20E030E84AED53E40E94C2
:100E500053096B017C0120E030E040E251E4C50120
:100E6000B4010E94C00987FF09C020E030E0A90159
:100E7000C501B4010E94180B18169CF020E030E068
:100E800040E251ECC501B4010E94180B181694F40D
:100E900020E030E0A901C501B4010E94C00987FF2C
:100EA00009C01092D2011092D3011092D401109275
:100EB000D50122C020E030E444E054E4C501B4018F
:100EC0000E94180B87FD09C04092D2015092D301B5
:100ED0006092D4017092D5010FC020E030E0A901EA
:100EE000C501B4010E94C5096093D2017093D3017A
:100EF0008093D4019093D50120E030E040E251E4AA
:100F0000C701B6010E94C00987FF09C020E030E098
:100F1000A901C701B6010E94180B18169CF020E029
:100F200030E040E251ECC701B6010E94180B1816E0
:100F300094F420E030E0A901C701B6010E94C00985
:100F400087FF09C01092CE011092CF011092D001FC
:100F50001092D10122C020E030E04CE752E4C701FA
:100F6000B6010E94180B87FD09C04092CE01509235
:100F7000CF016092D0017092D1010FC020E030E02B
:100F8000A901C701B6010E94C5096093CE01709303
:100F9000CF018093D0019093D10182E50E94870018
:100FA0008DE491E00E94BB02C090D601D090D701A1
:100FB0000D2C000CEE08FF08F7FE0CC08DE20E941D
:100FC000870066277727CB016C197D098E099F0959
:100FD0004AE003C04AE0C701B6010E94BD028DE4A9
:100FE00091E00E94BB026091D2017091D301809187
:100FF000D4019091D50142E00E942F038DE491E04D
:101000000E94BB026091CE017091CF018091D0010E
:101010009091D10142E00E942F038DE491E00E9463
:10102000BB0244E060E070E0CB010E942F038DE43E
:1010300091E00E94BB0244E060E070E0CB010E94BE
:101040002F038DE491E00E94BB0244E060E070E079
:10105000CB010E942F038DE491E00E94BB0244E08B
:1010600060E070E0CB010E942F038CE70E948700B4
:1010700086E291E00E94A9020E941F024B015C01DE
:101080008AE0C82ED12CE12CF12C0E941F02DC0139
:10109000CB0188199909AA09BB09883E9340A1058B
:1010A000B10558F021E0C21AD108E108F10888EE34
:1010B000880E83E0981EA11CB11CC114D104E10468
:1010C000F10419F70E947F015DCE1093CD0181E0FC
:1010D0000E94B2018091D6019091D701846011C025
:1010E00089E00E94DF01019709F05FCE80E00E9455
:1010F000B2011092CD018091D6019091D7018B71F0
:1011000099279093D7018093D6014FCE1093CC01AD
:1011100081E00E94B2018091D6019091D701826056
:1011200011C087E00E94DF01019709F048CE80E0FE
:101130000E94B2011092CC018091D6019091D7010A
:101140008D7199279093D7018093D60138CE109353
:10115000CB0181E00E94B2018091D6019091D7012C
:10116000816011C084E00E94DF01019709F031CE57
:1011700080E00E94B2011092CB018091D601909143
:10118000D7018E7199279093D7018093D60121CEF4
:101190001093CA0181E00E94B2018091D601909122
:1011A000D701806111C082E00E94DF01019709F040
:1011B0001ACE80E00E94B2011092CA018091D6013D
:1011C0009091D7018F7099279093D7018093D60182
:1011D0000ACE1093C90181E00E94B2018091D6012C
:1011E0009091D701886011C083E00E94DF010197D0
:1011F00009F003CE80E00E94B2011092C9018091F3
:10120000D6019091D701877199279093D701809348
:10121000D601F3CD1093C80181E00E94B201809104
:10122000D6019091D701806211C08AE00E94DF014F
:10123000019709F0ECCD80E00E94B2011092C80144
:101240008091D6019091D7018F7199279093D70102
:101250008093D601DCCDA1E21A2EAA1BBB1BFD0197
:101260000DC0AA1FBB1FEE1FFF1FA217B307E40785
:10127000F50720F0A21BB30BE40BF50B661F771FDD
:10128000881F991F1A9469F76095709580959095BD
:101290009B01AC01BD01CF010895EE0FFF1F05902A
:1012A000F491E02D09945058BB27AA270E946B099E
:1012B0000C94DE0A0E94D00A38F00E94D70A20F06F
:1012C00039F49F3F19F426F40C94CD0A0EF4E095FE
:1012D000E7FB0C94C70AE92F0E94EF0A58F3BA17EC
:1012E000620773078407950720F079F4A6F50C943C
:1012F000110B0EF4E0950B2EBA2FA02D0B01B901A6
:1013000090010C01CA01A0011124FF27591B99F07B
:10131000593F50F4503E68F11A16F040A22F232F87
:10132000342F4427585FF3CF469537952795A795D7
:10133000F0405395C9F77EF41F16BA0B620B730B7E
:10134000840BBAF09150A1F0FF0FBB1F661F771FEF
:10135000881FC2F70EC0BA0F621F731F841F48F4A4
:10136000879577956795B795F7959E3F08F0B0CF2D
:101370009395880F08F09927EE0F97958795089514
:101380000E94A30A08F481E008950E94D9090C94F0
:10139000DE0A0E94D70A58F00E94D00A40F029F4D1
:1013A0005F3F29F00C94C70A51110C94120B0C9456
:1013B000CD0A0E94EF0A68F39923B1F3552391F304
:1013C000951B550BBB27AA2762177307840738F0B4
:1013D0009F5F5F4F220F331F441FAA1FA9F335D011
:1013E0000E2E3AF0E0E832D091505040E695001CC5
:1013F000CAF72BD0FE2F29D0660F771F881FBB1F7F
:10140000261737074807AB07B0E809F0BB0B802D5C
:10141000BF01FF2793585F4F3AF09E3F510578F088
:101420000C94C70A0C94120B5F3FE4F3983ED4F37C
:10143000869577956795B795F7959F5FC9F7880F5C
:10144000911D9695879597F90895E1E0660F771FAE
:10145000881FBB1F621773078407BA0720F0621B3F
:10146000730B840BBA0BEE1F88F7E09508950E946A
:10147000F70A88F09F5798F0B92F9927B751B0F025
:10148000E1F0660F771F881F991F1AF0BA95C9F708
:1014900014C0B13091F00E94110BB1E008950C948A
:1014A000110B672F782F8827B85F39F0B93FCCF33D
:1014B000869577956795B395D9F73EF49095809585
:1014C000709561957F4F8F4F9F4F0895E89409C0A5
:1014D00097FB3EF490958095709561957F4F8F4F67
:1014E0009F4F9923A9F0F92F96E9BB279395F6957D
:1014F000879577956795B795F111F8CFFAF4BB0FFB
:1015000011F460FF1BC06F5F7F4F8F4F9F4F16C05E
:10151000882311F096E911C0772321F09EE8872FE8
:10152000762F05C0662371F096E8862F70E060E0A4
:101530002AF09A95660F771F881FDAF7880F96951D
:10154000879597F90895990F0008550FAA0BE0E8C1
:10155000FEEF16161706E807F907C0F01216130675
:10156000E407F50798F0621B730B840B950B39F4B5
:101570000A2661F0232B242B252B21F408950A261B
:1015800009F4A140A6958FEF811D811D089597F95B
:101590009F6780E870E060E008959FEF80EC089519
:1015A00000240A9416161706180609060895002442
:1015B0000A9412161306140605060895092E0394BC
:1015C000000C11F4882352F0BB0F40F4BF2B11F430
:1015D00060FF04C06F5F7F4F8F4F9F4F089557FD8F
:1015E0009058440F551F59F05F3F71F04795880F91
:1015F00097FB991F61F09F3F79F087950895121628
:1016000013061406551FF2CF4695F1DF08C01616D3
:1016100017061806991FF1CF869571056105089484
:101620000895E894BB2766277727CB0197F908959B
:101630000E94A30A08F48FEF08950E94300B0C94C7
:10164000DE0A0E94D00A38F00E94D70A20F09523C3
:1016500011F00C94C70A0C94CD0A11240C94120BAF
:101660000E94EF0A70F3959FC1F3950F50E0551F4C
:10167000629FF001729FBB27F00DB11D639FAA27E7
:10168000F00DB11DAA1F649F6627B00DA11D661F36
:10169000829F2227B00DA11D621F739FB00DA11D57
:1016A000621F839FA00D611D221F749F3327A00D11
:1016B000611D231F849F600D211D822F762F6A2FAD
:1016C00011249F5750409AF0F1F088234AF0EE0F12
:1016D000FF1FBB1F661F771F881F91505040A9F73F
:1016E0009E3F510580F00C94C70A0C94120B5F3F8B
:1016F000E4F3983ED4F3869577956795B795F7957B
:10170000E7959F5FC1F7FE2B880F911D96958795F2
:1017100097F908950E94A30A880B990B089581E018
:0C17200090E0F8940C94940BF894FFCF28
:10172C0000008F0280000000000016019200DF0014
:10173C00BD00D1005D0100000000980284027D0212
:10174C007A02770276020D0A006E616E00696E668F
:10175C00006F7666002E004D505520696E69743A04
:10176C00200046726565206D656D3A20003B0000D7
:107800000C94343C0C94513C0C94513C0C94513CE1
:107810000C94513C0C94513C0C94513C0C94513CB4
:107820000C94513C0C94513C0C94513C0C94513CA4
:107830000C94513C0C94513C0C94513C0C94513C94
:107840000C94513C0C94513C0C94513C0C94513C84
:107850000C94513C0C94513C0C94513C0C94513C74
:107860000C94513C0C94513C11241FBECFEFD8E036
:10787000DEBFCDBF11E0A0E0B1E0ECE9FFE702C060
:1078800005900D92A230B107D9F712E0A2E0B1E065
:1078900001C01D92AD30B107E1F70E942D3D0C945F
:1078A000CC3F0C94003C982F959595959595959582
:1078B000905D8F708A307CF0282F295A8091C0000B
:1078C00085FFFCCF9093C6008091C00085FFFCCF60
:1078D0002093C6000895282F205DF0CF982F809127
:1078E000C00085FFFCCF9093C6000895EF92FF92F1
:1078F0000F931F93EE24FF2487018091C00087FD22
:1079000017C00894E11CF11C011D111D81E4E8164B
:1079100082E4F8068FE0080780E0180770F3E09132
:107920000401F091050109958091C00087FFE9CF1E
:107930008091C6001F910F91FF90EF9008950E94D3
:10794000763C982F8091C00085FFFCCF9093C600B5
:1079500091362CF490330CF09053892F089597555D
:10796000892F08951F930E949F3C182F0E949F3CCF
:107970001295107F810F1F9108951F93182F882350
:1079800021F00E94763C1150E1F71F9108951F935A
:10799000182F0E94763C803249F0809103018F5F5E
:1079A000809303018530C1F01F9108958091C0003C
:1079B00085FFFCCF84E18093C6008091C00085FFE5
:1079C000FCCF1093C6008091C00085FFFCCF80E102
:1079D0008093C6001F910895E0910401F091050184
:1079E00009951F9108950E94763C803241F0809164
:1079F00003018F5F80930301853081F008958091AA
:107A0000C00085FFFCCF84E18093C6008091C00058
:107A100085FFFCCF80E18093C6000895E0910401CA
:107A2000F09105010995089540E951E08823A1F0FE
:107A30002D9A28EE33E0FA013197F1F721503040CA
:107A4000D1F72D9828EE33E0FA013197F1F7215064
:107A50003040D1F7815061F708953F924F925F9285
:107A60006F927F928F929F92AF92BF92CF92DF924E
:107A7000EF92FF920F931F93CF93DF93000080E16B
:107A80008093C4001092C50088E18093C10086E015
:107A90008093C2005098589A259A81E00E94143D24
:107AA00024E1F22E9EE1E92E85E9D82E0FE0C02ECA
:107AB00010E1B12EAA24A394B1E49B2EA6E58A2E50
:107AC000F2E57F2EE0E26E2E79E4572E63E5462E36
:107AD00050E5352E0E94763C8033B1F18133B9F107
:107AE000803409F46FC0813409F476C0823409F41B
:107AF00085C0853409F488C0803531F1823521F1A3
:107B0000813511F1853509F485C0863509F48DC0BC
:107B1000843609F496C0843709F403C1853709F423
:107B200072C1863709F466C0809103018F5F80932C
:107B30000301853079F6E0910401F0910501099582
:107B40000E94763C803351F60E94F33CC3CF0E94E2
:107B5000763C803249F78091C00085FFFCCFF092DF
:107B6000C6008091C00085FFFCCF9092C600809136
:107B7000C00085FFFCCF8092C6008091C00085FFC9
:107B8000FCCF7092C6008091C00085FFFCCF609250
:107B9000C6008091C00085FFFCCF5092C600809146
:107BA000C00085FFFCCF4092C6008091C00085FFD9
:107BB000FCCF3092C6008091C00085FFFCCFB09210
:107BC000C60088CF0E94763C863808F4BDCF0E945C
:107BD000763C0E94F33C7ECF0E94763C803809F4CC
:107BE0009CC0813809F40BC1823809F43CC1883942
:107BF00009F48FC080E00E94C73C6CCF84E10E94F2
:107C0000BD3C0E94F33C66CF85E00E94BD3C0E94D3
:107C1000F33C60CF0E94763C809306010E94763C44
:107C2000809307010E94F33C55CF0E94763C80333D
:107C300009F41DC183E00E94BD3C80E00E94C73C66
:107C400049CF0E94763C809309020E94763C809343
:107C5000080280910C028E7F80930C020E94763C79
:107C6000853409F415C18091080290910902892B8D
:107C700089F000E010E00E94763CF801E85FFE4FDA
:107C800080830F5F1F4F80910802909109020817AF
:107C9000190788F30E94763C803209F045CF809125
:107CA0000C0280FF01C16091060170910701660F0F
:107CB000771F7093070160930601A0910802B091AD
:107CC00009021097C9F0E8E0F1E09B01AD014E0F09
:107CD0005F1FF999FECF32BD21BD819180BDFA9A17
:107CE000F99A2F5F3F4FE417F50799F76A0F7B1F4B
:107CF00070930701609306018091C00085FFFCCF5F
:107D0000F092C6008091C00085FFFCCFB092C60003
:107D1000E1CE83E00E94C73CDDCE82E00E94C73CFA
:107D2000D9CE0E94763C809309020E94763C8093D3
:107D300008028091060190910701880F991F909386
:107D40000701809306010E94763C853409F4A6C0A1
:107D500080910C028E7F80930C020E94763C8032D0
:107D600009F0B8CE8091C00085FFFCCFF092C6002C
:107D7000609108027091090261157105B9F140E046
:107D800050E080910C02A82FA170B82FB27011C0E2
:107D9000BB2309F45CC0E0910601F0910701319624
:107DA000F0930701E09306014F5F5F4F46175707B7
:107DB000E8F4AA2369F3F999FECF209106013091E6
:107DC000070132BD21BDF89A90B58091C00085FFB2
:107DD000FCCF9093C6002F5F3F4F30930701209355
:107DE00006014F5F5F4F4617570718F38091C00099
:107DF00085FDE5CE8091C00085FFF8CFE0CE81E023
:107E00000E94C73C67CE0E94763C803209F08CCE3F
:107E10008091C00085FFFCCFF092C6008091C00029
:107E200085FFFCCFE092C6008091C00085FFFCCFAB
:107E3000D092C6008091C00085FFFCCFC092C600E2
:107E40008091C00085FFFCCFB092C60043CEE09188
:107E50000601F091070194918091C00085FFFCCF4D
:107E60009093C6009CCF80E10E94C73C33CE0E9415
:107E7000763C0E94763C182F0E94763C112309F430
:107E800083C0113009F484C08FE00E94C73C22CE29
:107E900080910C02816080930C02E5CE80910C02EF
:107EA000816080930C0259CF809107018823880F4D
:107EB000880B8A2180930B02809106019091070123
:107EC000880F991F90930701809306018091080203
:107ED00080FF09C080910802909109020196909359
:107EE000090280930802F894F999FECF1127E091D6
:107EF0000601F0910701C8E0D1E08091080290915D
:107F00000902103091F40091570001700130D9F34B
:107F100003E000935700E89500915700017001308D
:107F2000D9F301E100935700E89509901990009169
:107F3000570001700130D9F301E000935700E89534
:107F40001395103498F011270091570001700130FB
:107F5000D9F305E000935700E895009157000170B0
:107F60000130D9F301E100935700E895329602976A
:107F700009F0C7CF103011F00296E5CF112480919F
:107F8000C00085FFB9CEBCCE8EE10E94C73CA2CD19
:0C7F900085E90E94C73C9ECDF894FFCF0D
:027F9C00800063
:040000030000780081
:00000001FF
